{
  "_format": "hh-sol-artifact-1",
  "contractName": "BIMA",
  "sourceName": "contracts/bima.sol",
  "abi": [
    {
      "inputs": [
        {
          "internalType": "string",
          "name": "name",
          "type": "string"
        },
        {
          "internalType": "string",
          "name": "symbol",
          "type": "string"
        },
        {
          "internalType": "uint8",
          "name": "decimals",
          "type": "uint8"
        },
        {
          "internalType": "uint256",
          "name": "initialSupply",
          "type": "uint256"
        },
        {
          "internalType": "address",
          "name": "_owner",
          "type": "address"
        }
      ],
      "stateMutability": "nonpayable",
      "type": "constructor"
    },
    {
      "anonymous": false,
      "inputs": [
        {
          "indexed": true,
          "internalType": "address",
          "name": "owner",
          "type": "address"
        },
        {
          "indexed": true,
          "internalType": "address",
          "name": "spender",
          "type": "address"
        },
        {
          "indexed": false,
          "internalType": "uint256",
          "name": "value",
          "type": "uint256"
        }
      ],
      "name": "Approval",
      "type": "event"
    },
    {
      "anonymous": false,
      "inputs": [
        {
          "indexed": true,
          "internalType": "address",
          "name": "from",
          "type": "address"
        },
        {
          "indexed": true,
          "internalType": "address",
          "name": "to",
          "type": "address"
        },
        {
          "indexed": false,
          "internalType": "uint256",
          "name": "value",
          "type": "uint256"
        }
      ],
      "name": "Transfer",
      "type": "event"
    },
    {
      "inputs": [
        {
          "internalType": "address",
          "name": "owner",
          "type": "address"
        },
        {
          "internalType": "address",
          "name": "spender",
          "type": "address"
        }
      ],
      "name": "allowance",
      "outputs": [
        {
          "internalType": "uint256",
          "name": "",
          "type": "uint256"
        }
      ],
      "stateMutability": "view",
      "type": "function"
    },
    {
      "inputs": [
        {
          "internalType": "address",
          "name": "spender",
          "type": "address"
        },
        {
          "internalType": "uint256",
          "name": "amount",
          "type": "uint256"
        }
      ],
      "name": "approve",
      "outputs": [
        {
          "internalType": "bool",
          "name": "",
          "type": "bool"
        }
      ],
      "stateMutability": "nonpayable",
      "type": "function"
    },
    {
      "inputs": [
        {
          "internalType": "address",
          "name": "account",
          "type": "address"
        }
      ],
      "name": "balanceOf",
      "outputs": [
        {
          "internalType": "uint256",
          "name": "",
          "type": "uint256"
        }
      ],
      "stateMutability": "view",
      "type": "function"
    },
    {
      "inputs": [],
      "name": "decimals",
      "outputs": [
        {
          "internalType": "uint8",
          "name": "",
          "type": "uint8"
        }
      ],
      "stateMutability": "view",
      "type": "function"
    },
    {
      "inputs": [
        {
          "internalType": "address",
          "name": "spender",
          "type": "address"
        },
        {
          "internalType": "uint256",
          "name": "subtractedValue",
          "type": "uint256"
        }
      ],
      "name": "decreaseAllowance",
      "outputs": [
        {
          "internalType": "bool",
          "name": "",
          "type": "bool"
        }
      ],
      "stateMutability": "nonpayable",
      "type": "function"
    },
    {
      "inputs": [
        {
          "internalType": "address",
          "name": "spender",
          "type": "address"
        },
        {
          "internalType": "uint256",
          "name": "addedValue",
          "type": "uint256"
        }
      ],
      "name": "increaseAllowance",
      "outputs": [
        {
          "internalType": "bool",
          "name": "",
          "type": "bool"
        }
      ],
      "stateMutability": "nonpayable",
      "type": "function"
    },
    {
      "inputs": [],
      "name": "name",
      "outputs": [
        {
          "internalType": "string",
          "name": "",
          "type": "string"
        }
      ],
      "stateMutability": "view",
      "type": "function"
    },
    {
      "inputs": [],
      "name": "owner",
      "outputs": [
        {
          "internalType": "address",
          "name": "",
          "type": "address"
        }
      ],
      "stateMutability": "view",
      "type": "function"
    },
    {
      "inputs": [],
      "name": "symbol",
      "outputs": [
        {
          "internalType": "string",
          "name": "",
          "type": "string"
        }
      ],
      "stateMutability": "view",
      "type": "function"
    },
    {
      "inputs": [],
      "name": "totalSupply",
      "outputs": [
        {
          "internalType": "uint256",
          "name": "",
          "type": "uint256"
        }
      ],
      "stateMutability": "view",
      "type": "function"
    },
    {
      "inputs": [
        {
          "internalType": "address",
          "name": "to",
          "type": "address"
        },
        {
          "internalType": "uint256",
          "name": "amount",
          "type": "uint256"
        }
      ],
      "name": "transfer",
      "outputs": [
        {
          "internalType": "bool",
          "name": "",
          "type": "bool"
        }
      ],
      "stateMutability": "nonpayable",
      "type": "function"
    },
    {
      "inputs": [
        {
          "internalType": "address",
          "name": "from",
          "type": "address"
        },
        {
          "internalType": "address",
          "name": "to",
          "type": "address"
        },
        {
          "internalType": "uint256",
          "name": "amount",
          "type": "uint256"
        }
      ],
      "name": "transferFrom",
      "outputs": [
        {
          "internalType": "bool",
          "name": "",
          "type": "bool"
        }
      ],
      "stateMutability": "nonpayable",
      "type": "function"
    },
    {
      "inputs": [
        {
          "internalType": "address",
          "name": "newOwner",
          "type": "address"
        }
      ],
      "name": "transferOwnership",
      "outputs": [],
      "stateMutability": "nonpayable",
      "type": "function"
    }
  ],
  "bytecode": "0x60806040523480156200001157600080fd5b5060405162001f1438038062001f148339818101604052810190620000379190620003c8565b848481600390805190602001906200005192919062000261565b5080600490805190602001906200006a92919062000261565b5050506200009d818460ff16600a6200008491906200061b565b8462000091919062000758565b620000e960201b60201c565b80600560006101000a81548173ffffffffffffffffffffffffffffffffffffffff021916908373ffffffffffffffffffffffffffffffffffffffff1602179055505050505050620009c8565b600073ffffffffffffffffffffffffffffffffffffffff168273ffffffffffffffffffffffffffffffffffffffff1614156200015c576040517f08c379a00000000000000000000000000000000000000000000000000000000081526004016200015390620004b4565b60405180910390fd5b62000170600083836200025760201b60201c565b806002600082825462000184919062000563565b92505081905550806000808473ffffffffffffffffffffffffffffffffffffffff1673ffffffffffffffffffffffffffffffffffffffff168152602001908152602001600020600082825401925050819055508173ffffffffffffffffffffffffffffffffffffffff16600073ffffffffffffffffffffffffffffffffffffffff167fddf252ad1be2c89b69c2b068fc378daa952ba7f163c4a11628f55a4df523b3ef83604051620002379190620004d6565b60405180910390a362000253600083836200025c60201b60201c565b5050565b505050565b505050565b8280546200026f906200083a565b90600052602060002090601f016020900481019282620002935760008555620002df565b82601f10620002ae57805160ff1916838001178555620002df565b82800160010185558215620002df579182015b82811115620002de578251825591602001919060010190620002c1565b5b509050620002ee9190620002f2565b5090565b5b808211156200030d576000816000905550600101620002f3565b5090565b60006200032862000322846200051c565b620004f3565b9050828152602081018484840111156200034157600080fd5b6200034e84828562000804565b509392505050565b60008151905062000367816200097a565b92915050565b600082601f8301126200037f57600080fd5b81516200039184826020860162000311565b91505092915050565b600081519050620003ab8162000994565b92915050565b600081519050620003c281620009ae565b92915050565b600080600080600060a08688031215620003e157600080fd5b600086015167ffffffffffffffff811115620003fc57600080fd5b6200040a888289016200036d565b955050602086015167ffffffffffffffff8111156200042857600080fd5b62000436888289016200036d565b94505060406200044988828901620003b1565b93505060606200045c888289016200039a565b92505060806200046f8882890162000356565b9150509295509295909350565b60006200048b601f8362000552565b9150620004988262000951565b602082019050919050565b620004ae81620007ed565b82525050565b60006020820190508181036000830152620004cf816200047c565b9050919050565b6000602082019050620004ed6000830184620004a3565b92915050565b6000620004ff62000512565b90506200050d828262000870565b919050565b6000604051905090565b600067ffffffffffffffff8211156200053a576200053962000904565b5b620005458262000933565b9050602081019050919050565b600082825260208201905092915050565b60006200057082620007ed565b91506200057d83620007ed565b9250827fffffffffffffffffffffffffffffffffffffffffffffffffffffffffffffffff03821115620005b557620005b4620008a6565b5b828201905092915050565b6000808291508390505b60018511156200061257808604811115620005ea57620005e9620008a6565b5b6001851615620005fa5780820291505b80810290506200060a8562000944565b9450620005ca565b94509492505050565b60006200062882620007ed565b91506200063583620007ed565b9250620006647fffffffffffffffffffffffffffffffffffffffffffffffffffffffffffffffff84846200066c565b905092915050565b6000826200067e576001905062000751565b816200068e576000905062000751565b8160018114620006a75760028114620006b257620006e8565b600191505062000751565b60ff841115620006c757620006c6620008a6565b5b8360020a915084821115620006e157620006e0620008a6565b5b5062000751565b5060208310610133831016604e8410600b8410161715620007225782820a9050838111156200071c576200071b620008a6565b5b62000751565b620007318484846001620005c0565b925090508184048111156200074b576200074a620008a6565b5b81810290505b9392505050565b60006200076582620007ed565b91506200077283620007ed565b9250817fffffffffffffffffffffffffffffffffffffffffffffffffffffffffffffffff0483118215151615620007ae57620007ad620008a6565b5b828202905092915050565b6000620007c682620007cd565b9050919050565b600073ffffffffffffffffffffffffffffffffffffffff82169050919050565b6000819050919050565b600060ff82169050919050565b60005b838110156200082457808201518184015260208101905062000807565b8381111562000834576000848401525b50505050565b600060028204905060018216806200085357607f821691505b602082108114156200086a5762000869620008d5565b5b50919050565b6200087b8262000933565b810181811067ffffffffffffffff821117156200089d576200089c62000904565b5b80604052505050565b7f4e487b7100000000000000000000000000000000000000000000000000000000600052601160045260246000fd5b7f4e487b7100000000000000000000000000000000000000000000000000000000600052602260045260246000fd5b7f4e487b7100000000000000000000000000000000000000000000000000000000600052604160045260246000fd5b6000601f19601f8301169050919050565b60008160011c9050919050565b7f45524332303a206d696e7420746f20746865207a65726f206164647265737300600082015250565b6200098581620007b9565b81146200099157600080fd5b50565b6200099f81620007ed565b8114620009ab57600080fd5b50565b620009b981620007f7565b8114620009c557600080fd5b50565b61153c80620009d86000396000f3fe608060405234801561001057600080fd5b50600436106100cf5760003560e01c806370a082311161008c578063a457c2d711610066578063a457c2d71461022a578063a9059cbb1461025a578063dd62ed3e1461028a578063f2fde38b146102ba576100cf565b806370a08231146101be5780638da5cb5b146101ee57806395d89b411461020c576100cf565b806306fdde03146100d4578063095ea7b3146100f257806318160ddd1461012257806323b872dd14610140578063313ce56714610170578063395093511461018e575b600080fd5b6100dc6102d6565b6040516100e99190610f4a565b60405180910390f35b61010c60048036038101906101079190610d28565b610368565b6040516101199190610f2f565b60405180910390f35b61012a61038b565b604051610137919061108c565b60405180910390f35b61015a60048036038101906101559190610cd9565b610395565b6040516101679190610f2f565b60405180910390f35b6101786103c4565b60405161018591906110a7565b60405180910390f35b6101a860048036038101906101a39190610d28565b6103cd565b6040516101b59190610f2f565b60405180910390f35b6101d860048036038101906101d39190610c74565b610404565b6040516101e5919061108c565b60405180910390f35b6101f661044c565b6040516102039190610f14565b60405180910390f35b610214610472565b6040516102219190610f4a565b60405180910390f35b610244600480360381019061023f9190610d28565b610504565b6040516102519190610f2f565b60405180910390f35b610274600480360381019061026f9190610d28565b61057b565b6040516102819190610f2f565b60405180910390f35b6102a4600480360381019061029f9190610c9d565b61059e565b6040516102b1919061108c565b60405180910390f35b6102d460048036038101906102cf9190610c74565b610625565b005b6060600380546102e5906111bc565b80601f0160208091040260200160405190810160405280929190818152602001828054610311906111bc565b801561035e5780601f106103335761010080835404028352916020019161035e565b820191906000526020600020905b81548152906001019060200180831161034157829003601f168201915b5050505050905090565b600080610373610769565b9050610380818585610771565b600191505092915050565b6000600254905090565b6000806103a0610769565b90506103ad85828561093c565b6103b88585856109c8565b60019150509392505050565b60006012905090565b6000806103d8610769565b90506103f98185856103ea858961059e565b6103f491906110de565b610771565b600191505092915050565b60008060008373ffffffffffffffffffffffffffffffffffffffff1673ffffffffffffffffffffffffffffffffffffffff168152602001908152602001600020549050919050565b600560009054906101000a900473ffffffffffffffffffffffffffffffffffffffff1681565b606060048054610481906111bc565b80601f01602080910402602001604051908101604052809291908181526020018280546104ad906111bc565b80156104fa5780601f106104cf576101008083540402835291602001916104fa565b820191906000526020600020905b8154815290600101906020018083116104dd57829003601f168201915b5050505050905090565b60008061050f610769565b9050600061051d828661059e565b905083811015610562576040517f08c379a00000000000000000000000000000000000000000000000000000000081526004016105599061106c565b60405180910390fd5b61056f8286868403610771565b60019250505092915050565b600080610586610769565b90506105938185856109c8565b600191505092915050565b6000600160008473ffffffffffffffffffffffffffffffffffffffff1673ffffffffffffffffffffffffffffffffffffffff16815260200190815260200160002060008373ffffffffffffffffffffffffffffffffffffffff1673ffffffffffffffffffffffffffffffffffffffff16815260200190815260200160002054905092915050565b600073ffffffffffffffffffffffffffffffffffffffff168173ffffffffffffffffffffffffffffffffffffffff161415610695576040517f08c379a000000000000000000000000000000000000000000000000000000000815260040161068c9061100c565b60405180910390fd5b600560009054906101000a900473ffffffffffffffffffffffffffffffffffffffff1673ffffffffffffffffffffffffffffffffffffffff163373ffffffffffffffffffffffffffffffffffffffff1614610725576040517f08c379a000000000000000000000000000000000000000000000000000000000815260040161071c90610fec565b60405180910390fd5b80600560006101000a81548173ffffffffffffffffffffffffffffffffffffffff021916908373ffffffffffffffffffffffffffffffffffffffff16021790555050565b600033905090565b600073ffffffffffffffffffffffffffffffffffffffff168373ffffffffffffffffffffffffffffffffffffffff1614156107e1576040517f08c379a00000000000000000000000000000000000000000000000000000000081526004016107d89061104c565b60405180910390fd5b600073ffffffffffffffffffffffffffffffffffffffff168273ffffffffffffffffffffffffffffffffffffffff161415610851576040517f08c379a000000000000000000000000000000000000000000000000000000000815260040161084890610f8c565b60405180910390fd5b80600160008573ffffffffffffffffffffffffffffffffffffffff1673ffffffffffffffffffffffffffffffffffffffff16815260200190815260200160002060008473ffffffffffffffffffffffffffffffffffffffff1673ffffffffffffffffffffffffffffffffffffffff168152602001908152602001600020819055508173ffffffffffffffffffffffffffffffffffffffff168373ffffffffffffffffffffffffffffffffffffffff167f8c5be1e5ebec7d5bd14f71427d1e84f3dd0314c0f7b2291e5b200ac8c7c3b9258360405161092f919061108c565b60405180910390a3505050565b6000610948848461059e565b90507fffffffffffffffffffffffffffffffffffffffffffffffffffffffffffffffff81146109c257818110156109b4576040517f08c379a00000000000000000000000000000000000000000000000000000000081526004016109ab90610fac565b60405180910390fd5b6109c18484848403610771565b5b50505050565b600073ffffffffffffffffffffffffffffffffffffffff168373ffffffffffffffffffffffffffffffffffffffff161415610a38576040517f08c379a0000000000000000000000000000000000000000000000000000000008152600401610a2f9061102c565b60405180910390fd5b600073ffffffffffffffffffffffffffffffffffffffff168273ffffffffffffffffffffffffffffffffffffffff161415610aa8576040517f08c379a0000000000000000000000000000000000000000000000000000000008152600401610a9f90610f6c565b60405180910390fd5b610ab3838383610c40565b60008060008573ffffffffffffffffffffffffffffffffffffffff1673ffffffffffffffffffffffffffffffffffffffff16815260200190815260200160002054905081811015610b39576040517f08c379a0000000000000000000000000000000000000000000000000000000008152600401610b3090610fcc565b60405180910390fd5b8181036000808673ffffffffffffffffffffffffffffffffffffffff1673ffffffffffffffffffffffffffffffffffffffff16815260200190815260200160002081905550816000808573ffffffffffffffffffffffffffffffffffffffff1673ffffffffffffffffffffffffffffffffffffffff168152602001908152602001600020600082825401925050819055508273ffffffffffffffffffffffffffffffffffffffff168473ffffffffffffffffffffffffffffffffffffffff167fddf252ad1be2c89b69c2b068fc378daa952ba7f163c4a11628f55a4df523b3ef84604051610c27919061108c565b60405180910390a3610c3a848484610c45565b50505050565b505050565b505050565b600081359050610c59816114d8565b92915050565b600081359050610c6e816114ef565b92915050565b600060208284031215610c8657600080fd5b6000610c9484828501610c4a565b91505092915050565b60008060408385031215610cb057600080fd5b6000610cbe85828601610c4a565b9250506020610ccf85828601610c4a565b9150509250929050565b600080600060608486031215610cee57600080fd5b6000610cfc86828701610c4a565b9350506020610d0d86828701610c4a565b9250506040610d1e86828701610c5f565b9150509250925092565b60008060408385031215610d3b57600080fd5b6000610d4985828601610c4a565b9250506020610d5a85828601610c5f565b9150509250929050565b610d6d81611134565b82525050565b610d7c81611146565b82525050565b6000610d8d826110c2565b610d9781856110cd565b9350610da7818560208601611189565b610db08161124c565b840191505092915050565b6000610dc86023836110cd565b9150610dd38261125d565b604082019050919050565b6000610deb6022836110cd565b9150610df6826112ac565b604082019050919050565b6000610e0e601d836110cd565b9150610e19826112fb565b602082019050919050565b6000610e316026836110cd565b9150610e3c82611324565b604082019050919050565b6000610e546025836110cd565b9150610e5f82611373565b604082019050919050565b6000610e77601d836110cd565b9150610e82826113c2565b602082019050919050565b6000610e9a6025836110cd565b9150610ea5826113eb565b604082019050919050565b6000610ebd6024836110cd565b9150610ec88261143a565b604082019050919050565b6000610ee06025836110cd565b9150610eeb82611489565b604082019050919050565b610eff81611172565b82525050565b610f0e8161117c565b82525050565b6000602082019050610f296000830184610d64565b92915050565b6000602082019050610f446000830184610d73565b92915050565b60006020820190508181036000830152610f648184610d82565b905092915050565b60006020820190508181036000830152610f8581610dbb565b9050919050565b60006020820190508181036000830152610fa581610dde565b9050919050565b60006020820190508181036000830152610fc581610e01565b9050919050565b60006020820190508181036000830152610fe581610e24565b9050919050565b6000602082019050818103600083015261100581610e47565b9050919050565b6000602082019050818103600083015261102581610e6a565b9050919050565b6000602082019050818103600083015261104581610e8d565b9050919050565b6000602082019050818103600083015261106581610eb0565b9050919050565b6000602082019050818103600083015261108581610ed3565b9050919050565b60006020820190506110a16000830184610ef6565b92915050565b60006020820190506110bc6000830184610f05565b92915050565b600081519050919050565b600082825260208201905092915050565b60006110e982611172565b91506110f483611172565b9250827fffffffffffffffffffffffffffffffffffffffffffffffffffffffffffffffff03821115611129576111286111ee565b5b828201905092915050565b600061113f82611152565b9050919050565b60008115159050919050565b600073ffffffffffffffffffffffffffffffffffffffff82169050919050565b6000819050919050565b600060ff82169050919050565b60005b838110156111a757808201518184015260208101905061118c565b838111156111b6576000848401525b50505050565b600060028204905060018216806111d457607f821691505b602082108114156111e8576111e761121d565b5b50919050565b7f4e487b7100000000000000000000000000000000000000000000000000000000600052601160045260246000fd5b7f4e487b7100000000000000000000000000000000000000000000000000000000600052602260045260246000fd5b6000601f19601f8301169050919050565b7f45524332303a207472616e7366657220746f20746865207a65726f206164647260008201527f6573730000000000000000000000000000000000000000000000000000000000602082015250565b7f45524332303a20617070726f766520746f20746865207a65726f20616464726560008201527f7373000000000000000000000000000000000000000000000000000000000000602082015250565b7f45524332303a20696e73756666696369656e7420616c6c6f77616e6365000000600082015250565b7f45524332303a207472616e7366657220616d6f756e742065786365656473206260008201527f616c616e63650000000000000000000000000000000000000000000000000000602082015250565b7f4f6e6c7920746865206f776e65722063616e207472616e73666572206f776e6560008201527f7273686970000000000000000000000000000000000000000000000000000000602082015250565b7f4e6577206f776e657220697320746865207a65726f2061646472657373000000600082015250565b7f45524332303a207472616e736665722066726f6d20746865207a65726f20616460008201527f6472657373000000000000000000000000000000000000000000000000000000602082015250565b7f45524332303a20617070726f76652066726f6d20746865207a65726f2061646460008201527f7265737300000000000000000000000000000000000000000000000000000000602082015250565b7f45524332303a2064656372656173656420616c6c6f77616e63652062656c6f7760008201527f207a65726f000000000000000000000000000000000000000000000000000000602082015250565b6114e181611134565b81146114ec57600080fd5b50565b6114f881611172565b811461150357600080fd5b5056fea2646970667358221220e1f946e5beafd9931058f8463b11fe263fe996fd81a0d055f152a92fd2b09c2a64736f6c63430008040033",
  "linkReferences": {},
  "deployedLinkReferences": {}
}