{
  "_format": "hh-sol-artifact-1",
  "contractName": "BimaToken",
  "sourceName": "contracts/bima.sol",
  "abi": [
    {
      "inputs": [],
      "stateMutability": "nonpayable",
      "type": "constructor"
    },
    {
      "anonymous": false,
      "inputs": [
        {
          "indexed": true,
          "internalType": "address",
          "name": "owner",
          "type": "address"
        },
        {
          "indexed": true,
          "internalType": "address",
          "name": "spender",
          "type": "address"
        },
        {
          "indexed": false,
          "internalType": "uint256",
          "name": "value",
          "type": "uint256"
        }
      ],
      "name": "Approval",
      "type": "event"
    },
    {
      "anonymous": false,
      "inputs": [
        {
          "indexed": false,
          "internalType": "uint256",
          "name": "minTokensBeforeSwap",
          "type": "uint256"
        }
      ],
      "name": "MinTokensBeforeSwapUpdated",
      "type": "event"
    },
    {
      "anonymous": false,
      "inputs": [
        {
          "indexed": true,
          "internalType": "address",
          "name": "previousOwner",
          "type": "address"
        },
        {
          "indexed": true,
          "internalType": "address",
          "name": "newOwner",
          "type": "address"
        }
      ],
      "name": "OwnershipTransferred",
      "type": "event"
    },
    {
      "anonymous": false,
      "inputs": [
        {
          "indexed": false,
          "internalType": "uint256",
          "name": "tokensSwapped",
          "type": "uint256"
        },
        {
          "indexed": false,
          "internalType": "uint256",
          "name": "ethReceived",
          "type": "uint256"
        },
        {
          "indexed": false,
          "internalType": "uint256",
          "name": "tokensIntoLiqudity",
          "type": "uint256"
        }
      ],
      "name": "SwapAndLiquify",
      "type": "event"
    },
    {
      "anonymous": false,
      "inputs": [
        {
          "indexed": false,
          "internalType": "bool",
          "name": "enabled",
          "type": "bool"
        }
      ],
      "name": "SwapAndLiquifyEnabledUpdated",
      "type": "event"
    },
    {
      "anonymous": false,
      "inputs": [
        {
          "indexed": true,
          "internalType": "address",
          "name": "from",
          "type": "address"
        },
        {
          "indexed": true,
          "internalType": "address",
          "name": "to",
          "type": "address"
        },
        {
          "indexed": false,
          "internalType": "uint256",
          "name": "value",
          "type": "uint256"
        }
      ],
      "name": "Transfer",
      "type": "event"
    },
    {
      "inputs": [],
      "name": "_burnFee",
      "outputs": [
        {
          "internalType": "uint256",
          "name": "",
          "type": "uint256"
        }
      ],
      "stateMutability": "view",
      "type": "function"
    },
    {
      "inputs": [],
      "name": "_liquidityFee",
      "outputs": [
        {
          "internalType": "uint256",
          "name": "",
          "type": "uint256"
        }
      ],
      "stateMutability": "view",
      "type": "function"
    },
    {
      "inputs": [],
      "name": "_marketingFee",
      "outputs": [
        {
          "internalType": "uint256",
          "name": "",
          "type": "uint256"
        }
      ],
      "stateMutability": "view",
      "type": "function"
    },
    {
      "inputs": [],
      "name": "_maxTxAmount",
      "outputs": [
        {
          "internalType": "uint256",
          "name": "",
          "type": "uint256"
        }
      ],
      "stateMutability": "view",
      "type": "function"
    },
    {
      "inputs": [],
      "name": "_numTokensSellToAddToLiquidity",
      "outputs": [
        {
          "internalType": "uint256",
          "name": "",
          "type": "uint256"
        }
      ],
      "stateMutability": "view",
      "type": "function"
    },
    {
      "inputs": [],
      "name": "_taxFee",
      "outputs": [
        {
          "internalType": "uint256",
          "name": "",
          "type": "uint256"
        }
      ],
      "stateMutability": "view",
      "type": "function"
    },
    {
      "inputs": [],
      "name": "_totalLiqFee",
      "outputs": [
        {
          "internalType": "uint256",
          "name": "",
          "type": "uint256"
        }
      ],
      "stateMutability": "view",
      "type": "function"
    },
    {
      "inputs": [
        {
          "internalType": "address",
          "name": "owner",
          "type": "address"
        },
        {
          "internalType": "address",
          "name": "spender",
          "type": "address"
        }
      ],
      "name": "allowance",
      "outputs": [
        {
          "internalType": "uint256",
          "name": "",
          "type": "uint256"
        }
      ],
      "stateMutability": "view",
      "type": "function"
    },
    {
      "inputs": [
        {
          "internalType": "address",
          "name": "spender",
          "type": "address"
        },
        {
          "internalType": "uint256",
          "name": "amount",
          "type": "uint256"
        }
      ],
      "name": "approve",
      "outputs": [
        {
          "internalType": "bool",
          "name": "",
          "type": "bool"
        }
      ],
      "stateMutability": "nonpayable",
      "type": "function"
    },
    {
      "inputs": [
        {
          "internalType": "address",
          "name": "account",
          "type": "address"
        }
      ],
      "name": "balanceOf",
      "outputs": [
        {
          "internalType": "uint256",
          "name": "",
          "type": "uint256"
        }
      ],
      "stateMutability": "view",
      "type": "function"
    },
    {
      "inputs": [],
      "name": "decimals",
      "outputs": [
        {
          "internalType": "uint8",
          "name": "",
          "type": "uint8"
        }
      ],
      "stateMutability": "view",
      "type": "function"
    },
    {
      "inputs": [
        {
          "internalType": "address",
          "name": "spender",
          "type": "address"
        },
        {
          "internalType": "uint256",
          "name": "subtractedValue",
          "type": "uint256"
        }
      ],
      "name": "decreaseAllowance",
      "outputs": [
        {
          "internalType": "bool",
          "name": "",
          "type": "bool"
        }
      ],
      "stateMutability": "nonpayable",
      "type": "function"
    },
    {
      "inputs": [
        {
          "internalType": "uint256",
          "name": "tAmount",
          "type": "uint256"
        }
      ],
      "name": "deliver",
      "outputs": [],
      "stateMutability": "nonpayable",
      "type": "function"
    },
    {
      "inputs": [
        {
          "internalType": "address",
          "name": "account",
          "type": "address"
        }
      ],
      "name": "excludeFromFee",
      "outputs": [],
      "stateMutability": "nonpayable",
      "type": "function"
    },
    {
      "inputs": [
        {
          "internalType": "address",
          "name": "account",
          "type": "address"
        }
      ],
      "name": "excludeFromReward",
      "outputs": [],
      "stateMutability": "nonpayable",
      "type": "function"
    },
    {
      "inputs": [
        {
          "internalType": "address",
          "name": "account",
          "type": "address"
        }
      ],
      "name": "includeInFee",
      "outputs": [],
      "stateMutability": "nonpayable",
      "type": "function"
    },
    {
      "inputs": [
        {
          "internalType": "address",
          "name": "account",
          "type": "address"
        }
      ],
      "name": "includeInReward",
      "outputs": [],
      "stateMutability": "nonpayable",
      "type": "function"
    },
    {
      "inputs": [
        {
          "internalType": "address",
          "name": "spender",
          "type": "address"
        },
        {
          "internalType": "uint256",
          "name": "addedValue",
          "type": "uint256"
        }
      ],
      "name": "increaseAllowance",
      "outputs": [
        {
          "internalType": "bool",
          "name": "",
          "type": "bool"
        }
      ],
      "stateMutability": "nonpayable",
      "type": "function"
    },
    {
      "inputs": [
        {
          "internalType": "address",
          "name": "account",
          "type": "address"
        }
      ],
      "name": "isExcludedFromFee",
      "outputs": [
        {
          "internalType": "bool",
          "name": "",
          "type": "bool"
        }
      ],
      "stateMutability": "view",
      "type": "function"
    },
    {
      "inputs": [
        {
          "internalType": "address",
          "name": "account",
          "type": "address"
        }
      ],
      "name": "isExcludedFromReward",
      "outputs": [
        {
          "internalType": "bool",
          "name": "",
          "type": "bool"
        }
      ],
      "stateMutability": "view",
      "type": "function"
    },
    {
      "inputs": [],
      "name": "marketingWalletAddress",
      "outputs": [
        {
          "internalType": "address payable",
          "name": "",
          "type": "address"
        }
      ],
      "stateMutability": "view",
      "type": "function"
    },
    {
      "inputs": [],
      "name": "name",
      "outputs": [
        {
          "internalType": "string",
          "name": "",
          "type": "string"
        }
      ],
      "stateMutability": "view",
      "type": "function"
    },
    {
      "inputs": [],
      "name": "owner",
      "outputs": [
        {
          "internalType": "address",
          "name": "",
          "type": "address"
        }
      ],
      "stateMutability": "view",
      "type": "function"
    },
    {
      "inputs": [],
      "name": "renounceOwnership",
      "outputs": [],
      "stateMutability": "nonpayable",
      "type": "function"
    },
    {
      "inputs": [
        {
          "internalType": "address",
          "name": "newAddress",
          "type": "address"
        }
      ],
      "name": "setMarketingWalletAddress",
      "outputs": [],
      "stateMutability": "nonpayable",
      "type": "function"
    },
    {
      "inputs": [
        {
          "internalType": "uint256",
          "name": "maxTxAmount",
          "type": "uint256"
        }
      ],
      "name": "setMaxTxAmount",
      "outputs": [],
      "stateMutability": "nonpayable",
      "type": "function"
    },
    {
      "inputs": [
        {
          "internalType": "uint256",
          "name": "newLimit",
          "type": "uint256"
        }
      ],
      "name": "setNumTokensSellToAddToLiquidity",
      "outputs": [],
      "stateMutability": "nonpayable",
      "type": "function"
    },
    {
      "inputs": [
        {
          "internalType": "address",
          "name": "newRouter",
          "type": "address"
        }
      ],
      "name": "setRouterAddress",
      "outputs": [],
      "stateMutability": "nonpayable",
      "type": "function"
    },
    {
      "inputs": [
        {
          "internalType": "bool",
          "name": "newValue",
          "type": "bool"
        }
      ],
      "name": "setSwapAndLiquifyByLimitOnly",
      "outputs": [],
      "stateMutability": "nonpayable",
      "type": "function"
    },
    {
      "inputs": [
        {
          "internalType": "bool",
          "name": "_enabled",
          "type": "bool"
        }
      ],
      "name": "setSwapAndLiquifyEnabled",
      "outputs": [],
      "stateMutability": "nonpayable",
      "type": "function"
    },
    {
      "inputs": [
        {
          "internalType": "uint256",
          "name": "newRewardFee",
          "type": "uint256"
        },
        {
          "internalType": "uint256",
          "name": "newLiquidityFee",
          "type": "uint256"
        },
        {
          "internalType": "uint256",
          "name": "newMarketingfee",
          "type": "uint256"
        },
        {
          "internalType": "uint256",
          "name": "newBurnFee",
          "type": "uint256"
        }
      ],
      "name": "setTaxes",
      "outputs": [],
      "stateMutability": "nonpayable",
      "type": "function"
    },
    {
      "inputs": [],
      "name": "swapAndLiquifyByLimitOnly",
      "outputs": [
        {
          "internalType": "bool",
          "name": "",
          "type": "bool"
        }
      ],
      "stateMutability": "view",
      "type": "function"
    },
    {
      "inputs": [],
      "name": "swapAndLiquifyEnabled",
      "outputs": [
        {
          "internalType": "bool",
          "name": "",
          "type": "bool"
        }
      ],
      "stateMutability": "view",
      "type": "function"
    },
    {
      "inputs": [],
      "name": "symbol",
      "outputs": [
        {
          "internalType": "string",
          "name": "",
          "type": "string"
        }
      ],
      "stateMutability": "view",
      "type": "function"
    },
    {
      "inputs": [
        {
          "internalType": "uint256",
          "name": "rAmount",
          "type": "uint256"
        }
      ],
      "name": "tokenFromReflection",
      "outputs": [
        {
          "internalType": "uint256",
          "name": "",
          "type": "uint256"
        }
      ],
      "stateMutability": "view",
      "type": "function"
    },
    {
      "inputs": [],
      "name": "totalFees",
      "outputs": [
        {
          "internalType": "uint256",
          "name": "",
          "type": "uint256"
        }
      ],
      "stateMutability": "view",
      "type": "function"
    },
    {
      "inputs": [],
      "name": "totalSupply",
      "outputs": [
        {
          "internalType": "uint256",
          "name": "",
          "type": "uint256"
        }
      ],
      "stateMutability": "view",
      "type": "function"
    },
    {
      "inputs": [
        {
          "internalType": "address",
          "name": "recipient",
          "type": "address"
        },
        {
          "internalType": "uint256",
          "name": "amount",
          "type": "uint256"
        }
      ],
      "name": "transfer",
      "outputs": [
        {
          "internalType": "bool",
          "name": "",
          "type": "bool"
        }
      ],
      "stateMutability": "nonpayable",
      "type": "function"
    },
    {
      "inputs": [
        {
          "internalType": "address",
          "name": "sender",
          "type": "address"
        },
        {
          "internalType": "address",
          "name": "recipient",
          "type": "address"
        },
        {
          "internalType": "uint256",
          "name": "amount",
          "type": "uint256"
        }
      ],
      "name": "transferFrom",
      "outputs": [
        {
          "internalType": "bool",
          "name": "",
          "type": "bool"
        }
      ],
      "stateMutability": "nonpayable",
      "type": "function"
    },
    {
      "inputs": [
        {
          "internalType": "address",
          "name": "newOwner",
          "type": "address"
        }
      ],
      "name": "transferOwnership",
      "outputs": [],
      "stateMutability": "nonpayable",
      "type": "function"
    },
    {
      "inputs": [],
      "name": "uniswapV2Pair",
      "outputs": [
        {
          "internalType": "address",
          "name": "",
          "type": "address"
        }
      ],
      "stateMutability": "view",
      "type": "function"
    },
    {
      "inputs": [],
      "name": "uniswapV2Router",
      "outputs": [
        {
          "internalType": "contract IUniswapV2Router02",
          "name": "",
          "type": "address"
        }
      ],
      "stateMutability": "view",
      "type": "function"
    },
    {
      "inputs": [
        {
          "internalType": "address",
          "name": "_tokenContract",
          "type": "address"
        },
        {
          "internalType": "uint256",
          "name": "_amount",
          "type": "uint256"
        }
      ],
      "name": "withdrawToken",
      "outputs": [],
      "stateMutability": "nonpayable",
      "type": "function"
    },
    {
      "stateMutability": "payable",
      "type": "receive"
    }
  ],
  "bytecode": "0x608060405273295dc158b4bd98aca981ed8ec06e34969f8473a0600160006101000a81548173ffffffffffffffffffffffffffffffffffffffff021916908373ffffffffffffffffffffffffffffffffffffffff16021790555069152d02c7e14af68000006008556008546000196200007991906200094e565b6000196200008891906200089f565b6009556040518060400160405280600a81526020017f42696d6120546f6b656e00000000000000000000000000000000000000000000815250600b9080519060200190620000d8929190620006e3565b506040518060400160405280600481526020017f42494d4100000000000000000000000000000000000000000000000000000000815250600c908051906020019062000126929190620006e3565b506012600d60006101000a81548160ff021916908360ff1602179055506006600e556002600f556001601055600160115560105460125560086013556013546014556001601660156101000a81548160ff02191690831515021790555060006016806101000a81548160ff02191690831515021790555069152d02c7e14af6800000601755681b1ae4d6e2ef500000601855348015620001c557600080fd5b50620001e6620001da620005d660201b60201c565b620005de60201b60201c565b60095460026000620001fd620005d660201b60201c565b73ffffffffffffffffffffffffffffffffffffffff1673ffffffffffffffffffffffffffffffffffffffff16815260200190815260200160002081905550600073d99d1c33f9fc3444f8101754abc46c52416550d190508073ffffffffffffffffffffffffffffffffffffffff1663c45a01556040518163ffffffff1660e01b815260040160206040518083038186803b1580156200029b57600080fd5b505afa158015620002b0573d6000803e3d6000fd5b505050506040513d601f19601f82011682018060405250810190620002d69190620007aa565b73ffffffffffffffffffffffffffffffffffffffff1663c9c65396308373ffffffffffffffffffffffffffffffffffffffff1663ad5c46486040518163ffffffff1660e01b815260040160206040518083038186803b1580156200033957600080fd5b505afa1580156200034e573d6000803e3d6000fd5b505050506040513d601f19601f82011682018060405250810190620003749190620007aa565b6040518363ffffffff1660e01b815260040162000393929190620007f8565b602060405180830381600087803b158015620003ae57600080fd5b505af1158015620003c3573d6000803e3d6000fd5b505050506040513d601f19601f82011682018060405250810190620003e99190620007aa565b601660006101000a81548173ffffffffffffffffffffffffffffffffffffffff021916908373ffffffffffffffffffffffffffffffffffffffff16021790555080601560006101000a81548173ffffffffffffffffffffffffffffffffffffffff021916908373ffffffffffffffffffffffffffffffffffffffff16021790555060016005600062000480620006a260201b60201c565b73ffffffffffffffffffffffffffffffffffffffff1673ffffffffffffffffffffffffffffffffffffffff16815260200190815260200160002060006101000a81548160ff0219169083151502179055506001600560003073ffffffffffffffffffffffffffffffffffffffff1673ffffffffffffffffffffffffffffffffffffffff16815260200190815260200160002060006101000a81548160ff02191690831515021790555062000547600e54600f54620006cb60201b62001dd51790919060201c565b60138190555060135460148190555062000566620005d660201b60201c565b73ffffffffffffffffffffffffffffffffffffffff16600073ffffffffffffffffffffffffffffffffffffffff167fddf252ad1be2c89b69c2b068fc378daa952ba7f163c4a11628f55a4df523b3ef600854604051620005c7919062000825565b60405180910390a35062000a2d565b600033905090565b60008060009054906101000a900473ffffffffffffffffffffffffffffffffffffffff169050816000806101000a81548173ffffffffffffffffffffffffffffffffffffffff021916908373ffffffffffffffffffffffffffffffffffffffff1602179055508173ffffffffffffffffffffffffffffffffffffffff168173ffffffffffffffffffffffffffffffffffffffff167f8be0079c531659141344cd1fd0a4f28419497f9722a3daafe3b4186f6b6457e060405160405180910390a35050565b60008060009054906101000a900473ffffffffffffffffffffffffffffffffffffffff16905090565b60008183620006db919062000842565b905092915050565b828054620006f19062000918565b90600052602060002090601f01602090048101928262000715576000855562000761565b82601f106200073057805160ff191683800117855562000761565b8280016001018555821562000761579182015b828111156200076057825182559160200191906001019062000743565b5b50905062000770919062000774565b5090565b5b808211156200078f57600081600090555060010162000775565b5090565b600081519050620007a48162000a13565b92915050565b600060208284031215620007bd57600080fd5b6000620007cd8482850162000793565b91505092915050565b620007e181620008da565b82525050565b620007f2816200090e565b82525050565b60006040820190506200080f6000830185620007d6565b6200081e6020830184620007d6565b9392505050565b60006020820190506200083c6000830184620007e7565b92915050565b60006200084f826200090e565b91506200085c836200090e565b9250827fffffffffffffffffffffffffffffffffffffffffffffffffffffffffffffffff0382111562000894576200089362000986565b5b828201905092915050565b6000620008ac826200090e565b9150620008b9836200090e565b925082821015620008cf57620008ce62000986565b5b828203905092915050565b6000620008e782620008ee565b9050919050565b600073ffffffffffffffffffffffffffffffffffffffff82169050919050565b6000819050919050565b600060028204905060018216806200093157607f821691505b60208210811415620009485762000947620009e4565b5b50919050565b60006200095b826200090e565b915062000968836200090e565b9250826200097b576200097a620009b5565b5b828206905092915050565b7f4e487b7100000000000000000000000000000000000000000000000000000000600052601160045260246000fd5b7f4e487b7100000000000000000000000000000000000000000000000000000000600052601260045260246000fd5b7f4e487b7100000000000000000000000000000000000000000000000000000000600052602260045260246000fd5b62000a1e81620008da565b811462000a2a57600080fd5b50565b614e9e8062000a3d6000396000f3fe6080604052600436106102605760003560e01c80636bc87c3a11610144578063a9059cbb116100b6578063da00097d1161007a578063da00097d1461091d578063dd62ed3e14610948578063ea2f0b3714610985578063ec28438a146109ae578063f0f165af146109d7578063f2fde38b14610a0057610267565b8063a9059cbb14610836578063b3f22ce314610873578063c0b0fda21461089e578063c49b9a80146108c9578063d158272d146108f257610267565b80638da5cb5b116101085780638da5cb5b1461072857806395d89b41146107535780639e281a981461077e578063a12a7d61146107a7578063a457c2d7146107d0578063a5d69d1f1461080d57610267565b80636bc87c3a1461064157806370a082311461066c578063715018a6146106a95780637d1db4a5146106c057806388f82020146106eb57610267565b806339509351116101dd57806349bd5a5e116101a157806349bd5a5e146105315780634a74bb021461055c5780634cb80fd51461058757806352390c02146105b05780635342acb4146105d9578063688393771461061657610267565b8063395093511461044e5780633b124fe71461048b5780633bd5d173146104b657806341cb87fc146104df578063437823ec1461050857610267565b806322976e0d1161022457806322976e0d1461035557806323b872dd146103805780632d838119146103bd578063313ce567146103fa5780633685d4191461042557610267565b806306fdde031461026c578063095ea7b31461029757806313114a9d146102d45780631694505e146102ff57806318160ddd1461032a57610267565b3661026757005b600080fd5b34801561027857600080fd5b50610281610a29565b60405161028e9190614521565b60405180910390f35b3480156102a357600080fd5b506102be60048036038101906102b99190613ff1565b610abb565b6040516102cb91906144eb565b60405180910390f35b3480156102e057600080fd5b506102e9610ad9565b6040516102f691906146a3565b60405180910390f35b34801561030b57600080fd5b50610314610ae3565b6040516103219190614506565b60405180910390f35b34801561033657600080fd5b5061033f610b09565b60405161034c91906146a3565b60405180910390f35b34801561036157600080fd5b5061036a610b13565b60405161037791906146a3565b60405180910390f35b34801561038c57600080fd5b506103a760048036038101906103a29190613fa2565b610b19565b6040516103b491906144eb565b60405180910390f35b3480156103c957600080fd5b506103e460048036038101906103df919061407f565b610bf2565b6040516103f191906146a3565b60405180910390f35b34801561040657600080fd5b5061040f610c60565b60405161041c919061474f565b60405180910390f35b34801561043157600080fd5b5061044c60048036038101906104479190613f14565b610c77565b005b34801561045a57600080fd5b5061047560048036038101906104709190613ff1565b610fd1565b60405161048291906144eb565b60405180910390f35b34801561049757600080fd5b506104a0611084565b6040516104ad91906146a3565b60405180910390f35b3480156104c257600080fd5b506104dd60048036038101906104d8919061407f565b61108a565b005b3480156104eb57600080fd5b5061050660048036038101906105019190613f14565b611205565b005b34801561051457600080fd5b5061052f600480360381019061052a9190613f14565b61141e565b005b34801561053d57600080fd5b50610546611481565b6040516105539190614402565b60405180910390f35b34801561056857600080fd5b506105716114a7565b60405161057e91906144eb565b60405180910390f35b34801561059357600080fd5b506105ae60048036038101906105a99190613f14565b6114ba565b005b3480156105bc57600080fd5b506105d760048036038101906105d29190613f14565b611506565b005b3480156105e557600080fd5b5061060060048036038101906105fb9190613f14565b61172d565b60405161060d91906144eb565b60405180910390f35b34801561062257600080fd5b5061062b611783565b60405161063891906146a3565b60405180910390f35b34801561064d57600080fd5b50610656611789565b60405161066391906146a3565b60405180910390f35b34801561067857600080fd5b50610693600480360381019061068e9190613f14565b61178f565b6040516106a091906146a3565b60405180910390f35b3480156106b557600080fd5b506106be61187a565b005b3480156106cc57600080fd5b506106d561188e565b6040516106e291906146a3565b60405180910390f35b3480156106f757600080fd5b50610712600480360381019061070d9190613f14565b611894565b60405161071f91906144eb565b60405180910390f35b34801561073457600080fd5b5061073d6118ea565b60405161074a9190614402565b60405180910390f35b34801561075f57600080fd5b50610768611913565b6040516107759190614521565b60405180910390f35b34801561078a57600080fd5b506107a560048036038101906107a09190613ff1565b6119a5565b005b3480156107b357600080fd5b506107ce60048036038101906107c991906140f7565b611a45565b005b3480156107dc57600080fd5b506107f760048036038101906107f29190613ff1565b611a95565b60405161080491906144eb565b60405180910390f35b34801561081957600080fd5b50610834600480360381019061082f919061402d565b611b62565b005b34801561084257600080fd5b5061085d60048036038101906108589190613ff1565b611b86565b60405161086a91906144eb565b60405180910390f35b34801561087f57600080fd5b50610888611ba4565b60405161089591906146a3565b60405180910390f35b3480156108aa57600080fd5b506108b3611baa565b6040516108c091906146a3565b60405180910390f35b3480156108d557600080fd5b506108f060048036038101906108eb919061402d565b611bb0565b005b3480156108fe57600080fd5b50610907611c0c565b604051610914919061441d565b60405180910390f35b34801561092957600080fd5b50610932611c32565b60405161093f91906144eb565b60405180910390f35b34801561095457600080fd5b5061096f600480360381019061096a9190613f66565b611c43565b60405161097c91906146a3565b60405180910390f35b34801561099157600080fd5b506109ac60048036038101906109a79190613f14565b611cca565b005b3480156109ba57600080fd5b506109d560048036038101906109d0919061407f565b611d2d565b005b3480156109e357600080fd5b506109fe60048036038101906109f9919061407f565b611d3f565b005b348015610a0c57600080fd5b50610a276004803603810190610a229190613f14565b611d51565b005b6060600b8054610a38906149a4565b80601f0160208091040260200160405190810160405280929190818152602001828054610a64906149a4565b8015610ab15780601f10610a8657610100808354040283529160200191610ab1565b820191906000526020600020905b815481529060010190602001808311610a9457829003601f168201915b5050505050905090565b6000610acf610ac8611deb565b8484611df3565b6001905092915050565b6000600a54905090565b601560009054906101000a900473ffffffffffffffffffffffffffffffffffffffff1681565b6000600854905090565b600e5481565b6000610b26848484611fbe565b610be784610b32611deb565b610be285604051806060016040528060288152602001614e1c60289139600460008b73ffffffffffffffffffffffffffffffffffffffff1673ffffffffffffffffffffffffffffffffffffffff1681526020019081526020016000206000610b98611deb565b73ffffffffffffffffffffffffffffffffffffffff1673ffffffffffffffffffffffffffffffffffffffff168152602001908152602001600020546123329092919063ffffffff16565b611df3565b600190509392505050565b6000600954821115610c39576040517f08c379a0000000000000000000000000000000000000000000000000000000008152600401610c3090614563565b60405180910390fd5b6000610c43612387565b9050610c5881846123b290919063ffffffff16565b915050919050565b6000600d60009054906101000a900460ff16905090565b610c7f6123c8565b600660008273ffffffffffffffffffffffffffffffffffffffff1673ffffffffffffffffffffffffffffffffffffffff16815260200190815260200160002060009054906101000a900460ff16610d0b576040517f08c379a0000000000000000000000000000000000000000000000000000000008152600401610d02906145c3565b60405180910390fd5b60005b600780549050811015610fcd578173ffffffffffffffffffffffffffffffffffffffff1660078281548110610d6c577f4e487b7100000000000000000000000000000000000000000000000000000000600052603260045260246000fd5b9060005260206000200160009054906101000a900473ffffffffffffffffffffffffffffffffffffffff1673ffffffffffffffffffffffffffffffffffffffff161415610fba5760076001600780549050610dc791906148a0565b81548110610dfe577f4e487b7100000000000000000000000000000000000000000000000000000000600052603260045260246000fd5b9060005260206000200160009054906101000a900473ffffffffffffffffffffffffffffffffffffffff1660078281548110610e63577f4e487b7100000000000000000000000000000000000000000000000000000000600052603260045260246000fd5b9060005260206000200160006101000a81548173ffffffffffffffffffffffffffffffffffffffff021916908373ffffffffffffffffffffffffffffffffffffffff1602179055506000600360008473ffffffffffffffffffffffffffffffffffffffff1673ffffffffffffffffffffffffffffffffffffffff168152602001908152602001600020819055506000600660008473ffffffffffffffffffffffffffffffffffffffff1673ffffffffffffffffffffffffffffffffffffffff16815260200190815260200160002060006101000a81548160ff0219169083151502179055506007805480610f80577f4e487b7100000000000000000000000000000000000000000000000000000000600052603160045260246000fd5b6001900381819060005260206000200160006101000a81549073ffffffffffffffffffffffffffffffffffffffff02191690559055610fcd565b8080610fc5906149d6565b915050610d0e565b5050565b600061107a610fde611deb565b846110758560046000610fef611deb565b73ffffffffffffffffffffffffffffffffffffffff1673ffffffffffffffffffffffffffffffffffffffff16815260200190815260200160002060008973ffffffffffffffffffffffffffffffffffffffff1673ffffffffffffffffffffffffffffffffffffffff16815260200190815260200160002054611dd590919063ffffffff16565b611df3565b6001905092915050565b60105481565b6000611094611deb565b9050600660008273ffffffffffffffffffffffffffffffffffffffff1673ffffffffffffffffffffffffffffffffffffffff16815260200190815260200160002060009054906101000a900460ff1615611123576040517f08c379a000000000000000000000000000000000000000000000000000000000815260040161111a90614683565b60405180910390fd5b600061112e83612446565b5050505050905061118781600260008573ffffffffffffffffffffffffffffffffffffffff1673ffffffffffffffffffffffffffffffffffffffff168152602001908152602001600020546124a290919063ffffffff16565b600260008473ffffffffffffffffffffffffffffffffffffffff1673ffffffffffffffffffffffffffffffffffffffff168152602001908152602001600020819055506111df816009546124a290919063ffffffff16565b6009819055506111fa83600a54611dd590919063ffffffff16565b600a81905550505050565b61120d6123c8565b60008190508073ffffffffffffffffffffffffffffffffffffffff1663c45a01556040518163ffffffff1660e01b815260040160206040518083038186803b15801561125857600080fd5b505afa15801561126c573d6000803e3d6000fd5b505050506040513d601f19601f820116820180604052508101906112909190613f3d565b73ffffffffffffffffffffffffffffffffffffffff1663c9c65396308373ffffffffffffffffffffffffffffffffffffffff1663ad5c46486040518163ffffffff1660e01b815260040160206040518083038186803b1580156112f257600080fd5b505afa158015611306573d6000803e3d6000fd5b505050506040513d601f19601f8201168201806040525081019061132a9190613f3d565b6040518363ffffffff1660e01b8152600401611347929190614438565b602060405180830381600087803b15801561136157600080fd5b505af1158015611375573d6000803e3d6000fd5b505050506040513d601f19601f820116820180604052508101906113999190613f3d565b601660006101000a81548173ffffffffffffffffffffffffffffffffffffffff021916908373ffffffffffffffffffffffffffffffffffffffff16021790555080601560006101000a81548173ffffffffffffffffffffffffffffffffffffffff021916908373ffffffffffffffffffffffffffffffffffffffff1602179055505050565b6114266123c8565b6001600560008373ffffffffffffffffffffffffffffffffffffffff1673ffffffffffffffffffffffffffffffffffffffff16815260200190815260200160002060006101000a81548160ff02191690831515021790555050565b601660009054906101000a900473ffffffffffffffffffffffffffffffffffffffff1681565b601660159054906101000a900460ff1681565b6114c26123c8565b80600160006101000a81548173ffffffffffffffffffffffffffffffffffffffff021916908373ffffffffffffffffffffffffffffffffffffffff16021790555050565b61150e6123c8565b600660008273ffffffffffffffffffffffffffffffffffffffff1673ffffffffffffffffffffffffffffffffffffffff16815260200190815260200160002060009054906101000a900460ff161561159b576040517f08c379a0000000000000000000000000000000000000000000000000000000008152600401611592906145c3565b60405180910390fd5b6000600260008373ffffffffffffffffffffffffffffffffffffffff1673ffffffffffffffffffffffffffffffffffffffff16815260200190815260200160002054111561166f5761162b600260008373ffffffffffffffffffffffffffffffffffffffff1673ffffffffffffffffffffffffffffffffffffffff16815260200190815260200160002054610bf2565b600360008373ffffffffffffffffffffffffffffffffffffffff1673ffffffffffffffffffffffffffffffffffffffff168152602001908152602001600020819055505b6001600660008373ffffffffffffffffffffffffffffffffffffffff1673ffffffffffffffffffffffffffffffffffffffff16815260200190815260200160002060006101000a81548160ff0219169083151502179055506007819080600181540180825580915050600190039060005260206000200160009091909190916101000a81548173ffffffffffffffffffffffffffffffffffffffff021916908373ffffffffffffffffffffffffffffffffffffffff16021790555050565b6000600560008373ffffffffffffffffffffffffffffffffffffffff1673ffffffffffffffffffffffffffffffffffffffff16815260200190815260200160002060009054906101000a900460ff169050919050565b60135481565b600f5481565b6000600660008373ffffffffffffffffffffffffffffffffffffffff1673ffffffffffffffffffffffffffffffffffffffff16815260200190815260200160002060009054906101000a900460ff161561182a57600360008373ffffffffffffffffffffffffffffffffffffffff1673ffffffffffffffffffffffffffffffffffffffff168152602001908152602001600020549050611875565b611872600260008473ffffffffffffffffffffffffffffffffffffffff1673ffffffffffffffffffffffffffffffffffffffff16815260200190815260200160002054610bf2565b90505b919050565b6118826123c8565b61188c60006124b8565b565b60175481565b6000600660008373ffffffffffffffffffffffffffffffffffffffff1673ffffffffffffffffffffffffffffffffffffffff16815260200190815260200160002060009054906101000a900460ff169050919050565b60008060009054906101000a900473ffffffffffffffffffffffffffffffffffffffff16905090565b6060600c8054611922906149a4565b80601f016020809104026020016040519081016040528092919081815260200182805461194e906149a4565b801561199b5780601f106119705761010080835404028352916020019161199b565b820191906000526020600020905b81548152906001019060200180831161197e57829003601f168201915b5050505050905090565b6119ad6123c8565b60008290508073ffffffffffffffffffffffffffffffffffffffff1663a9059cbb33846040518363ffffffff1660e01b81526004016119ed929190614461565b602060405180830381600087803b158015611a0757600080fd5b505af1158015611a1b573d6000803e3d6000fd5b505050506040513d601f19601f82011682018060405250810190611a3f9190614056565b50505050565b611a4d6123c8565b8360108190555082600f8190555081600e8190555080601181905550611a80600e54600f54611dd590919063ffffffff16565b60138190555060135460148190555050505050565b6000611b58611aa2611deb565b84611b5385604051806060016040528060258152602001614e446025913960046000611acc611deb565b73ffffffffffffffffffffffffffffffffffffffff1673ffffffffffffffffffffffffffffffffffffffff16815260200190815260200160002060008a73ffffffffffffffffffffffffffffffffffffffff1673ffffffffffffffffffffffffffffffffffffffff168152602001908152602001600020546123329092919063ffffffff16565b611df3565b6001905092915050565b611b6a6123c8565b806016806101000a81548160ff02191690831515021790555050565b6000611b9a611b93611deb565b8484611fbe565b6001905092915050565b60185481565b60115481565b611bb86123c8565b80601660156101000a81548160ff0219169083151502179055507f53726dfcaf90650aa7eb35524f4d3220f07413c8d6cb404cc8c18bf5591bc15981604051611c0191906144eb565b60405180910390a150565b600160009054906101000a900473ffffffffffffffffffffffffffffffffffffffff1681565b60168054906101000a900460ff1681565b6000600460008473ffffffffffffffffffffffffffffffffffffffff1673ffffffffffffffffffffffffffffffffffffffff16815260200190815260200160002060008373ffffffffffffffffffffffffffffffffffffffff1673ffffffffffffffffffffffffffffffffffffffff16815260200190815260200160002054905092915050565b611cd26123c8565b6000600560008373ffffffffffffffffffffffffffffffffffffffff1673ffffffffffffffffffffffffffffffffffffffff16815260200190815260200160002060006101000a81548160ff02191690831515021790555050565b611d356123c8565b8060178190555050565b611d476123c8565b8060188190555050565b611d596123c8565b600073ffffffffffffffffffffffffffffffffffffffff168173ffffffffffffffffffffffffffffffffffffffff161415611dc9576040517f08c379a0000000000000000000000000000000000000000000000000000000008152600401611dc090614583565b60405180910390fd5b611dd2816124b8565b50565b60008183611de391906147bf565b905092915050565b600033905090565b600073ffffffffffffffffffffffffffffffffffffffff168373ffffffffffffffffffffffffffffffffffffffff161415611e63576040517f08c379a0000000000000000000000000000000000000000000000000000000008152600401611e5a90614663565b60405180910390fd5b600073ffffffffffffffffffffffffffffffffffffffff168273ffffffffffffffffffffffffffffffffffffffff161415611ed3576040517f08c379a0000000000000000000000000000000000000000000000000000000008152600401611eca906145a3565b60405180910390fd5b80600460008573ffffffffffffffffffffffffffffffffffffffff1673ffffffffffffffffffffffffffffffffffffffff16815260200190815260200160002060008473ffffffffffffffffffffffffffffffffffffffff1673ffffffffffffffffffffffffffffffffffffffff168152602001908152602001600020819055508173ffffffffffffffffffffffffffffffffffffffff168373ffffffffffffffffffffffffffffffffffffffff167f8c5be1e5ebec7d5bd14f71427d1e84f3dd0314c0f7b2291e5b200ac8c7c3b92583604051611fb191906146a3565b60405180910390a3505050565b600073ffffffffffffffffffffffffffffffffffffffff168373ffffffffffffffffffffffffffffffffffffffff16141561202e576040517f08c379a000000000000000000000000000000000000000000000000000000000815260040161202590614643565b60405180910390fd5b600073ffffffffffffffffffffffffffffffffffffffff168273ffffffffffffffffffffffffffffffffffffffff16141561209e576040517f08c379a000000000000000000000000000000000000000000000000000000000815260040161209590614543565b60405180910390fd5b600081116120e1576040517f08c379a00000000000000000000000000000000000000000000000000000000081526004016120d890614623565b60405180910390fd5b6120e96118ea565b73ffffffffffffffffffffffffffffffffffffffff168373ffffffffffffffffffffffffffffffffffffffff161415801561215757506121276118ea565b73ffffffffffffffffffffffffffffffffffffffff168273ffffffffffffffffffffffffffffffffffffffff1614155b156121a2576017548111156121a1576040517f08c379a0000000000000000000000000000000000000000000000000000000008152600401612198906145e3565b60405180910390fd5b5b60006121ad3061178f565b9050600060185482101590508080156121d35750601660149054906101000a900460ff16155b801561222d5750601660009054906101000a900473ffffffffffffffffffffffffffffffffffffffff1673ffffffffffffffffffffffffffffffffffffffff168573ffffffffffffffffffffffffffffffffffffffff1614155b80156122455750601660159054906101000a900460ff165b1561226d5760168054906101000a900460ff16156122635760185491505b61226c8261257c565b5b600060019050600560008773ffffffffffffffffffffffffffffffffffffffff1673ffffffffffffffffffffffffffffffffffffffff16815260200190815260200160002060009054906101000a900460ff16806123145750600560008673ffffffffffffffffffffffffffffffffffffffff1673ffffffffffffffffffffffffffffffffffffffff16815260200190815260200160002060009054906101000a900460ff165b1561231e57600090505b61232a86868684612745565b505050505050565b600083831115829061237a576040517f08c379a00000000000000000000000000000000000000000000000000000000081526004016123719190614521565b60405180910390fd5b5082840390509392505050565b6000806000612394612a56565b915091506123ab81836123b290919063ffffffff16565b9250505090565b600081836123c09190614815565b905092915050565b6123d0611deb565b73ffffffffffffffffffffffffffffffffffffffff166123ee6118ea565b73ffffffffffffffffffffffffffffffffffffffff1614612444576040517f08c379a000000000000000000000000000000000000000000000000000000000815260040161243b90614603565b60405180910390fd5b565b600080600080600080600080600061245d8a612da1565b925092509250600080600061247b8d8686612476612387565b612dfb565b9250925092508282828888889b509b509b509b509b509b5050505050505091939550919395565b600081836124b091906148a0565b905092915050565b60008060009054906101000a900473ffffffffffffffffffffffffffffffffffffffff169050816000806101000a81548173ffffffffffffffffffffffffffffffffffffffff021916908373ffffffffffffffffffffffffffffffffffffffff1602179055508173ffffffffffffffffffffffffffffffffffffffff168173ffffffffffffffffffffffffffffffffffffffff167f8be0079c531659141344cd1fd0a4f28419497f9722a3daafe3b4186f6b6457e060405160405180910390a35050565b6001601660146101000a81548160ff02191690831515021790555060006125c2600f546125b4601354856123b290919063ffffffff16565b612e8490919063ffffffff16565b905060006125d982846124a290919063ffffffff16565b905060008211156126825760006125fa6002846123b290919063ffffffff16565b9050600061261182856124a290919063ffffffff16565b9050600047905061262183612e9a565b600061263682476124a290919063ffffffff16565b9050612642838261315e565b7f17bbfb9a6069321b6ded73bd96327c9e6b7212a5cd51ff219cd61370acafb56184828560405161267593929190614718565b60405180910390a1505050505b60008111801561269457506000600e54115b156127255760004790506126a782612e9a565b60006126bc82476124a290919063ffffffff16565b905060006126e9600e546126db600e54856123b290919063ffffffff16565b612e8490919063ffffffff16565b9050600081111561272157612720600160009054906101000a900473ffffffffffffffffffffffffffffffffffffffff1682613252565b5b5050505b50506000601660146101000a81548160ff02191690831515021790555050565b806127535761275261329d565b5b600660008573ffffffffffffffffffffffffffffffffffffffff1673ffffffffffffffffffffffffffffffffffffffff16815260200190815260200160002060009054906101000a900460ff1680156127f65750600660008473ffffffffffffffffffffffffffffffffffffffff1673ffffffffffffffffffffffffffffffffffffffff16815260200190815260200160002060009054906101000a900460ff16155b1561280b576128068484846132c1565b612a42565b600660008573ffffffffffffffffffffffffffffffffffffffff1673ffffffffffffffffffffffffffffffffffffffff16815260200190815260200160002060009054906101000a900460ff161580156128ae5750600660008473ffffffffffffffffffffffffffffffffffffffff1673ffffffffffffffffffffffffffffffffffffffff16815260200190815260200160002060009054906101000a900460ff165b156128c3576128be848484613521565b612a41565b600660008573ffffffffffffffffffffffffffffffffffffffff1673ffffffffffffffffffffffffffffffffffffffff16815260200190815260200160002060009054906101000a900460ff161580156129675750600660008473ffffffffffffffffffffffffffffffffffffffff1673ffffffffffffffffffffffffffffffffffffffff16815260200190815260200160002060009054906101000a900460ff16155b1561297c57612977848484613781565b612a40565b600660008573ffffffffffffffffffffffffffffffffffffffff1673ffffffffffffffffffffffffffffffffffffffff16815260200190815260200160002060009054906101000a900460ff168015612a1e5750600660008473ffffffffffffffffffffffffffffffffffffffff1673ffffffffffffffffffffffffffffffffffffffff16815260200190815260200160002060009054906101000a900460ff165b15612a3357612a2e84848461394c565b612a3f565b612a3e848484613781565b5b5b5b5b80612a5057612a4f613c41565b5b50505050565b600080600060095490506000600854905060005b600780549050811015612d6457826002600060078481548110612ab6577f4e487b7100000000000000000000000000000000000000000000000000000000600052603260045260246000fd5b9060005260206000200160009054906101000a900473ffffffffffffffffffffffffffffffffffffffff1673ffffffffffffffffffffffffffffffffffffffff1673ffffffffffffffffffffffffffffffffffffffff168152602001908152602001600020541180612bca5750816003600060078481548110612b62577f4e487b7100000000000000000000000000000000000000000000000000000000600052603260045260246000fd5b9060005260206000200160009054906101000a900473ffffffffffffffffffffffffffffffffffffffff1673ffffffffffffffffffffffffffffffffffffffff1673ffffffffffffffffffffffffffffffffffffffff16815260200190815260200160002054115b15612be15760095460085494509450505050612d9d565b612c976002600060078481548110612c22577f4e487b7100000000000000000000000000000000000000000000000000000000600052603260045260246000fd5b9060005260206000200160009054906101000a900473ffffffffffffffffffffffffffffffffffffffff1673ffffffffffffffffffffffffffffffffffffffff1673ffffffffffffffffffffffffffffffffffffffff16815260200190815260200160002054846124a290919063ffffffff16565b9250612d4f6003600060078481548110612cda577f4e487b7100000000000000000000000000000000000000000000000000000000600052603260045260246000fd5b9060005260206000200160009054906101000a900473ffffffffffffffffffffffffffffffffffffffff1673ffffffffffffffffffffffffffffffffffffffff1673ffffffffffffffffffffffffffffffffffffffff16815260200190815260200160002054836124a290919063ffffffff16565b91508080612d5c906149d6565b915050612a6a565b50612d7c6008546009546123b290919063ffffffff16565b821015612d9457600954600854935093505050612d9d565b81819350935050505b9091565b600080600080612db085613c55565b90506000612dbd86613c86565b90506000612de682612dd8858a6124a290919063ffffffff16565b6124a290919063ffffffff16565b90508083839550955095505050509193909250565b600080600080612e148589612e8490919063ffffffff16565b90506000612e2b8689612e8490919063ffffffff16565b90506000612e428789612e8490919063ffffffff16565b90506000612e6b82612e5d85876124a290919063ffffffff16565b6124a290919063ffffffff16565b9050838184965096509650505050509450945094915050565b60008183612e929190614846565b905092915050565b6000600267ffffffffffffffff811115612edd577f4e487b7100000000000000000000000000000000000000000000000000000000600052604160045260246000fd5b604051908082528060200260200182016040528015612f0b5781602001602082028036833780820191505090505b5090503081600081518110612f49577f4e487b7100000000000000000000000000000000000000000000000000000000600052603260045260246000fd5b602002602001019073ffffffffffffffffffffffffffffffffffffffff16908173ffffffffffffffffffffffffffffffffffffffff1681525050601560009054906101000a900473ffffffffffffffffffffffffffffffffffffffff1673ffffffffffffffffffffffffffffffffffffffff1663ad5c46486040518163ffffffff1660e01b815260040160206040518083038186803b158015612feb57600080fd5b505afa158015612fff573d6000803e3d6000fd5b505050506040513d601f19601f820116820180604052508101906130239190613f3d565b8160018151811061305d577f4e487b7100000000000000000000000000000000000000000000000000000000600052603260045260246000fd5b602002602001019073ffffffffffffffffffffffffffffffffffffffff16908173ffffffffffffffffffffffffffffffffffffffff16815250506130c430601560009054906101000a900473ffffffffffffffffffffffffffffffffffffffff1684611df3565b601560009054906101000a900473ffffffffffffffffffffffffffffffffffffffff1673ffffffffffffffffffffffffffffffffffffffff1663791ac9478360008430426040518663ffffffff1660e01b81526004016131289594939291906146be565b600060405180830381600087803b15801561314257600080fd5b505af1158015613156573d6000803e3d6000fd5b505050505050565b61318b30601560009054906101000a900473ffffffffffffffffffffffffffffffffffffffff1684611df3565b601560009054906101000a900473ffffffffffffffffffffffffffffffffffffffff1673ffffffffffffffffffffffffffffffffffffffff1663f305d7198230856000806131d76118ea565b426040518863ffffffff1660e01b81526004016131f99695949392919061448a565b6060604051808303818588803b15801561321257600080fd5b505af1158015613226573d6000803e3d6000fd5b50505050506040513d601f19601f8201168201806040525081019061324b91906140a8565b5050505050565b8173ffffffffffffffffffffffffffffffffffffffff166108fc829081150290604051600060405180830381858888f19350505050158015613298573d6000803e3d6000fd5b505050565b60105460128190555060135460148190555060006010819055506000601381905550565b6000806000806000806132d387612446565b95509550955095509550955061333187600360008c73ffffffffffffffffffffffffffffffffffffffff1673ffffffffffffffffffffffffffffffffffffffff168152602001908152602001600020546124a290919063ffffffff16565b600360008b73ffffffffffffffffffffffffffffffffffffffff1673ffffffffffffffffffffffffffffffffffffffff168152602001908152602001600020819055506133c686600260008c73ffffffffffffffffffffffffffffffffffffffff1673ffffffffffffffffffffffffffffffffffffffff168152602001908152602001600020546124a290919063ffffffff16565b600260008b73ffffffffffffffffffffffffffffffffffffffff1673ffffffffffffffffffffffffffffffffffffffff1681526020019081526020016000208190555061345b85600260008b73ffffffffffffffffffffffffffffffffffffffff1673ffffffffffffffffffffffffffffffffffffffff16815260200190815260200160002054611dd590919063ffffffff16565b600260008a73ffffffffffffffffffffffffffffffffffffffff1673ffffffffffffffffffffffffffffffffffffffff168152602001908152602001600020819055506134a781613cb7565b6134b18483613e5c565b8773ffffffffffffffffffffffffffffffffffffffff168973ffffffffffffffffffffffffffffffffffffffff167fddf252ad1be2c89b69c2b068fc378daa952ba7f163c4a11628f55a4df523b3ef8560405161350e91906146a3565b60405180910390a3505050505050505050565b60008060008060008061353387612446565b95509550955095509550955061359186600260008c73ffffffffffffffffffffffffffffffffffffffff1673ffffffffffffffffffffffffffffffffffffffff168152602001908152602001600020546124a290919063ffffffff16565b600260008b73ffffffffffffffffffffffffffffffffffffffff1673ffffffffffffffffffffffffffffffffffffffff1681526020019081526020016000208190555061362683600360008b73ffffffffffffffffffffffffffffffffffffffff1673ffffffffffffffffffffffffffffffffffffffff16815260200190815260200160002054611dd590919063ffffffff16565b600360008a73ffffffffffffffffffffffffffffffffffffffff1673ffffffffffffffffffffffffffffffffffffffff168152602001908152602001600020819055506136bb85600260008b73ffffffffffffffffffffffffffffffffffffffff1673ffffffffffffffffffffffffffffffffffffffff16815260200190815260200160002054611dd590919063ffffffff16565b600260008a73ffffffffffffffffffffffffffffffffffffffff1673ffffffffffffffffffffffffffffffffffffffff1681526020019081526020016000208190555061370781613cb7565b6137118483613e5c565b8773ffffffffffffffffffffffffffffffffffffffff168973ffffffffffffffffffffffffffffffffffffffff167fddf252ad1be2c89b69c2b068fc378daa952ba7f163c4a11628f55a4df523b3ef8560405161376e91906146a3565b60405180910390a3505050505050505050565b60008060008060008061379387612446565b9550955095509550955095506137f186600260008c73ffffffffffffffffffffffffffffffffffffffff1673ffffffffffffffffffffffffffffffffffffffff168152602001908152602001600020546124a290919063ffffffff16565b600260008b73ffffffffffffffffffffffffffffffffffffffff1673ffffffffffffffffffffffffffffffffffffffff1681526020019081526020016000208190555061388685600260008b73ffffffffffffffffffffffffffffffffffffffff1673ffffffffffffffffffffffffffffffffffffffff16815260200190815260200160002054611dd590919063ffffffff16565b600260008a73ffffffffffffffffffffffffffffffffffffffff1673ffffffffffffffffffffffffffffffffffffffff168152602001908152602001600020819055506138d281613cb7565b6138dc8483613e5c565b8773ffffffffffffffffffffffffffffffffffffffff168973ffffffffffffffffffffffffffffffffffffffff167fddf252ad1be2c89b69c2b068fc378daa952ba7f163c4a11628f55a4df523b3ef8560405161393991906146a3565b60405180910390a3505050505050505050565b60008060008060008061395e87612446565b9550955095509550955095506139bc87600360008c73ffffffffffffffffffffffffffffffffffffffff1673ffffffffffffffffffffffffffffffffffffffff168152602001908152602001600020546124a290919063ffffffff16565b600360008b73ffffffffffffffffffffffffffffffffffffffff1673ffffffffffffffffffffffffffffffffffffffff16815260200190815260200160002081905550613a5186600260008c73ffffffffffffffffffffffffffffffffffffffff1673ffffffffffffffffffffffffffffffffffffffff168152602001908152602001600020546124a290919063ffffffff16565b600260008b73ffffffffffffffffffffffffffffffffffffffff1673ffffffffffffffffffffffffffffffffffffffff16815260200190815260200160002081905550613ae683600360008b73ffffffffffffffffffffffffffffffffffffffff1673ffffffffffffffffffffffffffffffffffffffff16815260200190815260200160002054611dd590919063ffffffff16565b600360008a73ffffffffffffffffffffffffffffffffffffffff1673ffffffffffffffffffffffffffffffffffffffff16815260200190815260200160002081905550613b7b85600260008b73ffffffffffffffffffffffffffffffffffffffff1673ffffffffffffffffffffffffffffffffffffffff16815260200190815260200160002054611dd590919063ffffffff16565b600260008a73ffffffffffffffffffffffffffffffffffffffff1673ffffffffffffffffffffffffffffffffffffffff16815260200190815260200160002081905550613bc781613cb7565b613bd18483613e5c565b8773ffffffffffffffffffffffffffffffffffffffff168973ffffffffffffffffffffffffffffffffffffffff167fddf252ad1be2c89b69c2b068fc378daa952ba7f163c4a11628f55a4df523b3ef85604051613c2e91906146a3565b60405180910390a3505050505050505050565b601254601081905550601454601381905550565b6000613c7f6064613c7160105485612e8490919063ffffffff16565b6123b290919063ffffffff16565b9050919050565b6000613cb06064613ca260135485612e8490919063ffffffff16565b6123b290919063ffffffff16565b9050919050565b6000613cc1612387565b90506000613cd88284612e8490919063ffffffff16565b9050613d2c81600260003073ffffffffffffffffffffffffffffffffffffffff1673ffffffffffffffffffffffffffffffffffffffff16815260200190815260200160002054611dd590919063ffffffff16565b600260003073ffffffffffffffffffffffffffffffffffffffff1673ffffffffffffffffffffffffffffffffffffffff16815260200190815260200160002081905550600660003073ffffffffffffffffffffffffffffffffffffffff1673ffffffffffffffffffffffffffffffffffffffff16815260200190815260200160002060009054906101000a900460ff1615613e5757613e1383600360003073ffffffffffffffffffffffffffffffffffffffff1673ffffffffffffffffffffffffffffffffffffffff16815260200190815260200160002054611dd590919063ffffffff16565b600360003073ffffffffffffffffffffffffffffffffffffffff1673ffffffffffffffffffffffffffffffffffffffff168152602001908152602001600020819055505b505050565b613e71826009546124a290919063ffffffff16565b600981905550613e8c81600a54611dd590919063ffffffff16565b600a819055505050565b600081359050613ea581614dd6565b92915050565b600081519050613eba81614dd6565b92915050565b600081359050613ecf81614ded565b92915050565b600081519050613ee481614ded565b92915050565b600081359050613ef981614e04565b92915050565b600081519050613f0e81614e04565b92915050565b600060208284031215613f2657600080fd5b6000613f3484828501613e96565b91505092915050565b600060208284031215613f4f57600080fd5b6000613f5d84828501613eab565b91505092915050565b60008060408385031215613f7957600080fd5b6000613f8785828601613e96565b9250506020613f9885828601613e96565b9150509250929050565b600080600060608486031215613fb757600080fd5b6000613fc586828701613e96565b9350506020613fd686828701613e96565b9250506040613fe786828701613eea565b9150509250925092565b6000806040838503121561400457600080fd5b600061401285828601613e96565b925050602061402385828601613eea565b9150509250929050565b60006020828403121561403f57600080fd5b600061404d84828501613ec0565b91505092915050565b60006020828403121561406857600080fd5b600061407684828501613ed5565b91505092915050565b60006020828403121561409157600080fd5b600061409f84828501613eea565b91505092915050565b6000806000606084860312156140bd57600080fd5b60006140cb86828701613eff565b93505060206140dc86828701613eff565b92505060406140ed86828701613eff565b9150509250925092565b6000806000806080858703121561410d57600080fd5b600061411b87828801613eea565b945050602061412c87828801613eea565b935050604061413d87828801613eea565b925050606061414e87828801613eea565b91505092959194509250565b60006141668383614181565b60208301905092915050565b61417b816148e6565b82525050565b61418a816148d4565b82525050565b614199816148d4565b82525050565b60006141aa8261477a565b6141b4818561479d565b93506141bf8361476a565b8060005b838110156141f05781516141d7888261415a565b97506141e283614790565b9250506001810190506141c3565b5085935050505092915050565b614206816148f8565b82525050565b6142158161493b565b82525050565b6142248161495f565b82525050565b600061423582614785565b61423f81856147ae565b935061424f818560208601614971565b61425881614aac565b840191505092915050565b60006142706023836147ae565b915061427b82614abd565b604082019050919050565b6000614293602a836147ae565b915061429e82614b0c565b604082019050919050565b60006142b66026836147ae565b91506142c182614b5b565b604082019050919050565b60006142d96022836147ae565b91506142e482614baa565b604082019050919050565b60006142fc601b836147ae565b915061430782614bf9565b602082019050919050565b600061431f6028836147ae565b915061432a82614c22565b604082019050919050565b60006143426020836147ae565b915061434d82614c71565b602082019050919050565b60006143656029836147ae565b915061437082614c9a565b604082019050919050565b60006143886025836147ae565b915061439382614ce9565b604082019050919050565b60006143ab6024836147ae565b91506143b682614d38565b604082019050919050565b60006143ce602c836147ae565b91506143d982614d87565b604082019050919050565b6143ed81614924565b82525050565b6143fc8161492e565b82525050565b60006020820190506144176000830184614190565b92915050565b60006020820190506144326000830184614172565b92915050565b600060408201905061444d6000830185614190565b61445a6020830184614190565b9392505050565b60006040820190506144766000830185614190565b61448360208301846143e4565b9392505050565b600060c08201905061449f6000830189614190565b6144ac60208301886143e4565b6144b9604083018761421b565b6144c6606083018661421b565b6144d36080830185614190565b6144e060a08301846143e4565b979650505050505050565b600060208201905061450060008301846141fd565b92915050565b600060208201905061451b600083018461420c565b92915050565b6000602082019050818103600083015261453b818461422a565b905092915050565b6000602082019050818103600083015261455c81614263565b9050919050565b6000602082019050818103600083015261457c81614286565b9050919050565b6000602082019050818103600083015261459c816142a9565b9050919050565b600060208201905081810360008301526145bc816142cc565b9050919050565b600060208201905081810360008301526145dc816142ef565b9050919050565b600060208201905081810360008301526145fc81614312565b9050919050565b6000602082019050818103600083015261461c81614335565b9050919050565b6000602082019050818103600083015261463c81614358565b9050919050565b6000602082019050818103600083015261465c8161437b565b9050919050565b6000602082019050818103600083015261467c8161439e565b9050919050565b6000602082019050818103600083015261469c816143c1565b9050919050565b60006020820190506146b860008301846143e4565b92915050565b600060a0820190506146d360008301886143e4565b6146e0602083018761421b565b81810360408301526146f2818661419f565b90506147016060830185614190565b61470e60808301846143e4565b9695505050505050565b600060608201905061472d60008301866143e4565b61473a60208301856143e4565b61474760408301846143e4565b949350505050565b600060208201905061476460008301846143f3565b92915050565b6000819050602082019050919050565b600081519050919050565b600081519050919050565b6000602082019050919050565b600082825260208201905092915050565b600082825260208201905092915050565b60006147ca82614924565b91506147d583614924565b9250827fffffffffffffffffffffffffffffffffffffffffffffffffffffffffffffffff0382111561480a57614809614a1f565b5b828201905092915050565b600061482082614924565b915061482b83614924565b92508261483b5761483a614a4e565b5b828204905092915050565b600061485182614924565b915061485c83614924565b9250817fffffffffffffffffffffffffffffffffffffffffffffffffffffffffffffffff048311821515161561489557614894614a1f565b5b828202905092915050565b60006148ab82614924565b91506148b683614924565b9250828210156148c9576148c8614a1f565b5b828203905092915050565b60006148df82614904565b9050919050565b60006148f182614904565b9050919050565b60008115159050919050565b600073ffffffffffffffffffffffffffffffffffffffff82169050919050565b6000819050919050565b600060ff82169050919050565b60006149468261494d565b9050919050565b600061495882614904565b9050919050565b600061496a82614924565b9050919050565b60005b8381101561498f578082015181840152602081019050614974565b8381111561499e576000848401525b50505050565b600060028204905060018216806149bc57607f821691505b602082108114156149d0576149cf614a7d565b5b50919050565b60006149e182614924565b91507fffffffffffffffffffffffffffffffffffffffffffffffffffffffffffffffff821415614a1457614a13614a1f565b5b600182019050919050565b7f4e487b7100000000000000000000000000000000000000000000000000000000600052601160045260246000fd5b7f4e487b7100000000000000000000000000000000000000000000000000000000600052601260045260246000fd5b7f4e487b7100000000000000000000000000000000000000000000000000000000600052602260045260246000fd5b6000601f19601f8301169050919050565b7f45524332303a207472616e7366657220746f20746865207a65726f206164647260008201527f6573730000000000000000000000000000000000000000000000000000000000602082015250565b7f416d6f756e74206d757374206265206c657373207468616e20746f74616c207260008201527f65666c656374696f6e7300000000000000000000000000000000000000000000602082015250565b7f4f776e61626c653a206e6577206f776e657220697320746865207a65726f206160008201527f6464726573730000000000000000000000000000000000000000000000000000602082015250565b7f45524332303a20617070726f766520746f20746865207a65726f20616464726560008201527f7373000000000000000000000000000000000000000000000000000000000000602082015250565b7f4163636f756e7420697320616c7265616479206578636c756465640000000000600082015250565b7f5472616e7366657220616d6f756e74206578636565647320746865206d61785460008201527f78416d6f756e742e000000000000000000000000000000000000000000000000602082015250565b7f4f776e61626c653a2063616c6c6572206973206e6f7420746865206f776e6572600082015250565b7f5472616e7366657220616d6f756e74206d75737420626520677265617465722060008201527f7468616e207a65726f0000000000000000000000000000000000000000000000602082015250565b7f45524332303a207472616e736665722066726f6d20746865207a65726f20616460008201527f6472657373000000000000000000000000000000000000000000000000000000602082015250565b7f45524332303a20617070726f76652066726f6d20746865207a65726f2061646460008201527f7265737300000000000000000000000000000000000000000000000000000000602082015250565b7f4578636c75646564206164647265737365732063616e6e6f742063616c6c207460008201527f6869732066756e6374696f6e0000000000000000000000000000000000000000602082015250565b614ddf816148d4565b8114614dea57600080fd5b50565b614df6816148f8565b8114614e0157600080fd5b50565b614e0d81614924565b8114614e1857600080fd5b5056fe45524332303a207472616e7366657220616d6f756e74206578636565647320616c6c6f77616e636545524332303a2064656372656173656420616c6c6f77616e63652062656c6f77207a65726fa26469706673582212209b6ae779c3462c9d45ff5780b2ae62ba08936700b1f4c6cc5f460207babb053564736f6c63430008040033",
  "linkReferences": {},
  "deployedLinkReferences": {}
}