{
    "contractName": "BIMA",
    "abi": [
        {
            "inputs": [
                {
                    "internalType": "string",
                    "name": "name",
                    "type": "string"
                },
                {
                    "internalType": "string",
                    "name": "symbol",
                    "type": "string"
                },
                {
                    "internalType": "uint8",
                    "name": "decimals",
                    "type": "uint8"
                },
                {
                    "internalType": "uint256",
                    "name": "initialSupply",
                    "type": "uint256"
                },
                {
                    "internalType": "address",
                    "name": "_owner",
                    "type": "address"
                }
            ],
            "stateMutability": "nonpayable",
            "type": "constructor"
        },
        {
            "anonymous": false,
            "inputs": [
                {
                    "indexed": true,
                    "internalType": "address",
                    "name": "owner",
                    "type": "address"
                },
                {
                    "indexed": true,
                    "internalType": "address",
                    "name": "spender",
                    "type": "address"
                },
                {
                    "indexed": false,
                    "internalType": "uint256",
                    "name": "value",
                    "type": "uint256"
                }
            ],
            "name": "Approval",
            "type": "event"
        },
        {
            "anonymous": false,
            "inputs": [
                {
                    "indexed": true,
                    "internalType": "address",
                    "name": "from",
                    "type": "address"
                },
                {
                    "indexed": true,
                    "internalType": "address",
                    "name": "to",
                    "type": "address"
                },
                {
                    "indexed": false,
                    "internalType": "uint256",
                    "name": "value",
                    "type": "uint256"
                }
            ],
            "name": "Transfer",
            "type": "event"
        },
        {
            "inputs": [
                {
                    "internalType": "address",
                    "name": "owner",
                    "type": "address"
                },
                {
                    "internalType": "address",
                    "name": "spender",
                    "type": "address"
                }
            ],
            "name": "allowance",
            "outputs": [
                {
                    "internalType": "uint256",
                    "name": "",
                    "type": "uint256"
                }
            ],
            "stateMutability": "view",
            "type": "function"
        },
        {
            "inputs": [
                {
                    "internalType": "address",
                    "name": "spender",
                    "type": "address"
                },
                {
                    "internalType": "uint256",
                    "name": "amount",
                    "type": "uint256"
                }
            ],
            "name": "approve",
            "outputs": [
                {
                    "internalType": "bool",
                    "name": "",
                    "type": "bool"
                }
            ],
            "stateMutability": "nonpayable",
            "type": "function"
        },
        {
            "inputs": [
                {
                    "internalType": "address",
                    "name": "account",
                    "type": "address"
                }
            ],
            "name": "balanceOf",
            "outputs": [
                {
                    "internalType": "uint256",
                    "name": "",
                    "type": "uint256"
                }
            ],
            "stateMutability": "view",
            "type": "function"
        },
        {
            "inputs": [],
            "name": "decimals",
            "outputs": [
                {
                    "internalType": "uint8",
                    "name": "",
                    "type": "uint8"
                }
            ],
            "stateMutability": "view",
            "type": "function"
        },
        {
            "inputs": [
                {
                    "internalType": "address",
                    "name": "spender",
                    "type": "address"
                },
                {
                    "internalType": "uint256",
                    "name": "subtractedValue",
                    "type": "uint256"
                }
            ],
            "name": "decreaseAllowance",
            "outputs": [
                {
                    "internalType": "bool",
                    "name": "",
                    "type": "bool"
                }
            ],
            "stateMutability": "nonpayable",
            "type": "function"
        },
        {
            "inputs": [
                {
                    "internalType": "address",
                    "name": "spender",
                    "type": "address"
                },
                {
                    "internalType": "uint256",
                    "name": "addedValue",
                    "type": "uint256"
                }
            ],
            "name": "increaseAllowance",
            "outputs": [
                {
                    "internalType": "bool",
                    "name": "",
                    "type": "bool"
                }
            ],
            "stateMutability": "nonpayable",
            "type": "function"
        },
        {
            "inputs": [],
            "name": "name",
            "outputs": [
                {
                    "internalType": "string",
                    "name": "",
                    "type": "string"
                }
            ],
            "stateMutability": "view",
            "type": "function"
        },
        {
            "inputs": [],
            "name": "owner",
            "outputs": [
                {
                    "internalType": "address",
                    "name": "",
                    "type": "address"
                }
            ],
            "stateMutability": "view",
            "type": "function"
        },
        {
            "inputs": [],
            "name": "symbol",
            "outputs": [
                {
                    "internalType": "string",
                    "name": "",
                    "type": "string"
                }
            ],
            "stateMutability": "view",
            "type": "function"
        },
        {
            "inputs": [],
            "name": "totalSupply",
            "outputs": [
                {
                    "internalType": "uint256",
                    "name": "",
                    "type": "uint256"
                }
            ],
            "stateMutability": "view",
            "type": "function"
        },
        {
            "inputs": [
                {
                    "internalType": "address",
                    "name": "to",
                    "type": "address"
                },
                {
                    "internalType": "uint256",
                    "name": "amount",
                    "type": "uint256"
                }
            ],
            "name": "transfer",
            "outputs": [
                {
                    "internalType": "bool",
                    "name": "",
                    "type": "bool"
                }
            ],
            "stateMutability": "nonpayable",
            "type": "function"
        },
        {
            "inputs": [
                {
                    "internalType": "address",
                    "name": "from",
                    "type": "address"
                },
                {
                    "internalType": "address",
                    "name": "to",
                    "type": "address"
                },
                {
                    "internalType": "uint256",
                    "name": "amount",
                    "type": "uint256"
                }
            ],
            "name": "transferFrom",
            "outputs": [
                {
                    "internalType": "bool",
                    "name": "",
                    "type": "bool"
                }
            ],
            "stateMutability": "nonpayable",
            "type": "function"
        },
        {
            "inputs": [
                {
                    "internalType": "address",
                    "name": "newOwner",
                    "type": "address"
                }
            ],
            "name": "transferOwnership",
            "outputs": [],
            "stateMutability": "nonpayable",
            "type": "function"
        }
    ],
    "bytecode": "60806040523480156200001157600080fd5b5060405162000f4638038062000f4683398101604081905262000034916200023a565b8484600362000044838262000378565b50600462000053828262000378565b5050506200007f818460ff16600a6200006d919062000559565b6200007990856200056e565b620000aa565b600580546001600160a01b0319166001600160a01b0392909216919091179055506200059e92505050565b6001600160a01b038216620001055760405162461bcd60e51b815260206004820152601f60248201527f45524332303a206d696e7420746f20746865207a65726f206164647265737300604482015260640160405180910390fd5b806002600082825462000119919062000588565b90915550506001600160a01b038216600081815260208181526040808320805486019055518481527fddf252ad1be2c89b69c2b068fc378daa952ba7f163c4a11628f55a4df523b3ef910160405180910390a35050565b505050565b634e487b7160e01b600052604160045260246000fd5b600082601f8301126200019d57600080fd5b81516001600160401b0380821115620001ba57620001ba62000175565b604051601f8301601f19908116603f01168101908282118183101715620001e557620001e562000175565b816040528381526020925086838588010111156200020257600080fd5b600091505b8382101562000226578582018301518183018401529082019062000207565b600093810190920192909252949350505050565b600080600080600060a086880312156200025357600080fd5b85516001600160401b03808211156200026b57600080fd5b6200027989838a016200018b565b965060208801519150808211156200029057600080fd5b506200029f888289016200018b565b945050604086015160ff81168114620002b757600080fd5b6060870151608088015191945092506001600160a01b0381168114620002dc57600080fd5b809150509295509295909350565b600181811c90821680620002ff57607f821691505b6020821081036200032057634e487b7160e01b600052602260045260246000fd5b50919050565b601f8211156200017057600081815260208120601f850160051c810160208610156200034f5750805b601f850160051c820191505b8181101562000370578281556001016200035b565b505050505050565b81516001600160401b0381111562000394576200039462000175565b620003ac81620003a58454620002ea565b8462000326565b602080601f831160018114620003e45760008415620003cb5750858301515b600019600386901b1c1916600185901b17855562000370565b600085815260208120601f198616915b828110156200041557888601518255948401946001909101908401620003f4565b5085821015620004345787850151600019600388901b60f8161c191681555b5050505050600190811b01905550565b634e487b7160e01b600052601160045260246000fd5b600181815b808511156200049b5781600019048211156200047f576200047f62000444565b808516156200048d57918102915b93841c93908002906200045f565b509250929050565b600082620004b45750600162000553565b81620004c35750600062000553565b8160018114620004dc5760028114620004e75762000507565b600191505062000553565b60ff841115620004fb57620004fb62000444565b50506001821b62000553565b5060208310610133831016604e8410600b84101617156200052c575081810a62000553565b6200053883836200045a565b80600019048211156200054f576200054f62000444565b0290505b92915050565b6000620005678383620004a3565b9392505050565b808202811582820484141762000553576200055362000444565b8082018082111562000553576200055362000444565b61099880620005ae6000396000f3fe608060405234801561001057600080fd5b50600436106100cf5760003560e01c806370a082311161008c578063a457c2d711610066578063a457c2d7146101b8578063a9059cbb146101cb578063dd62ed3e146101de578063f2fde38b146101f157600080fd5b806370a082311461015c5780638da5cb5b1461018557806395d89b41146101b057600080fd5b806306fdde03146100d4578063095ea7b3146100f257806318160ddd1461011557806323b872dd14610127578063313ce5671461013a5780633950935114610149575b600080fd5b6100dc610206565b6040516100e991906107e2565b60405180910390f35b61010561010036600461084c565b610298565b60405190151581526020016100e9565b6002545b6040519081526020016100e9565b610105610135366004610876565b6102b2565b604051601281526020016100e9565b61010561015736600461084c565b6102d6565b61011961016a3660046108b2565b6001600160a01b031660009081526020819052604090205490565b600554610198906001600160a01b031681565b6040516001600160a01b0390911681526020016100e9565b6100dc6102f8565b6101056101c636600461084c565b610307565b6101056101d936600461084c565b610387565b6101196101ec3660046108d4565b610395565b6102046101ff3660046108b2565b6103c0565b005b60606003805461021590610907565b80601f016020809104026020016040519081016040528092919081815260200182805461024190610907565b801561028e5780601f106102635761010080835404028352916020019161028e565b820191906000526020600020905b81548152906001019060200180831161027157829003601f168201915b5050505050905090565b6000336102a68185856104a0565b60019150505b92915050565b6000336102c08582856105c4565b6102cb85858561063e565b506001949350505050565b6000336102a68185856102e98383610395565b6102f39190610941565b6104a0565b60606004805461021590610907565b600033816103158286610395565b90508381101561037a5760405162461bcd60e51b815260206004820152602560248201527f45524332303a2064656372656173656420616c6c6f77616e63652062656c6f77604482015264207a65726f60d81b60648201526084015b60405180910390fd5b6102cb82868684036104a0565b6000336102a681858561063e565b6001600160a01b03918216600090815260016020908152604080832093909416825291909152205490565b6001600160a01b0381166104165760405162461bcd60e51b815260206004820152601d60248201527f4e6577206f776e657220697320746865207a65726f20616464726573730000006044820152606401610371565b6005546001600160a01b0316331461047e5760405162461bcd60e51b815260206004820152602560248201527f4f6e6c7920746865206f776e65722063616e207472616e73666572206f776e65604482015264072736869760dc1b6064820152608401610371565b600580546001600160a01b0319166001600160a01b0392909216919091179055565b6001600160a01b0383166105025760405162461bcd60e51b8152602060048201526024808201527f45524332303a20617070726f76652066726f6d20746865207a65726f206164646044820152637265737360e01b6064820152608401610371565b6001600160a01b0382166105635760405162461bcd60e51b815260206004820152602260248201527f45524332303a20617070726f766520746f20746865207a65726f206164647265604482015261737360f01b6064820152608401610371565b6001600160a01b0383811660008181526001602090815260408083209487168084529482529182902085905590518481527f8c5be1e5ebec7d5bd14f71427d1e84f3dd0314c0f7b2291e5b200ac8c7c3b925910160405180910390a3505050565b60006105d08484610395565b90506000198114610638578181101561062b5760405162461bcd60e51b815260206004820152601d60248201527f45524332303a20696e73756666696369656e7420616c6c6f77616e63650000006044820152606401610371565b61063884848484036104a0565b50505050565b6001600160a01b0383166106a25760405162461bcd60e51b815260206004820152602560248201527f45524332303a207472616e736665722066726f6d20746865207a65726f206164604482015264647265737360d81b6064820152608401610371565b6001600160a01b0382166107045760405162461bcd60e51b815260206004820152602360248201527f45524332303a207472616e7366657220746f20746865207a65726f206164647260448201526265737360e81b6064820152608401610371565b6001600160a01b0383166000908152602081905260409020548181101561077c5760405162461bcd60e51b815260206004820152602660248201527f45524332303a207472616e7366657220616d6f756e7420657863656564732062604482015265616c616e636560d01b6064820152608401610371565b6001600160a01b03848116600081815260208181526040808320878703905593871680835291849020805487019055925185815290927fddf252ad1be2c89b69c2b068fc378daa952ba7f163c4a11628f55a4df523b3ef910160405180910390a3610638565b600060208083528351808285015260005b8181101561080f578581018301518582016040015282016107f3565b506000604082860101526040601f19601f8301168501019250505092915050565b80356001600160a01b038116811461084757600080fd5b919050565b6000806040838503121561085f57600080fd5b61086883610830565b946020939093013593505050565b60008060006060848603121561088b57600080fd5b61089484610830565b92506108a260208501610830565b9150604084013590509250925092565b6000602082840312156108c457600080fd5b6108cd82610830565b9392505050565b600080604083850312156108e757600080fd5b6108f083610830565b91506108fe60208401610830565b90509250929050565b600181811c9082168061091b57607f821691505b60208210810361093b57634e487b7160e01b600052602260045260246000fd5b50919050565b808201808211156102ac57634e487b7160e01b600052601160045260246000fdfea2646970667358221220eb7a29f97d9fd363872fd6d4e4da34a331dc8003ea77d1d35b511e72d69b483764736f6c63430008130033",
    "sourcePath": "/home/back-dev/Documents/alone/js/contracts/bima_contract/contracts/bima.sol",
    "compiler": {
        "name": "solc",
        "version": "0.8.19+commit.7dd6d404"
    },
    "functionHashes": {
        "allowance(address,address)": "dd62ed3e",
        "approve(address,uint256)": "095ea7b3",
        "balanceOf(address)": "70a08231",
        "decimals()": "313ce567",
        "decreaseAllowance(address,uint256)": "a457c2d7",
        "increaseAllowance(address,uint256)": "39509351",
        "name()": "06fdde03",
        "owner()": "8da5cb5b",
        "symbol()": "95d89b41",
        "totalSupply()": "18160ddd",
        "transfer(address,uint256)": "a9059cbb",
        "transferFrom(address,address,uint256)": "23b872dd",
        "transferOwnership(address)": "f2fde38b"
    },
    "gasEstimates": {
        "creation": {
            "codeDepositCost": "491200",
            "executionCost": "infinite",
            "totalCost": "infinite"
        },
        "external": {
            "allowance(address,address)": "infinite",
            "approve(address,uint256)": "24628",
            "balanceOf(address)": "2563",
            "decimals()": "266",
            "decreaseAllowance(address,uint256)": "26972",
            "increaseAllowance(address,uint256)": "infinite",
            "name()": "infinite",
            "owner()": "2382",
            "symbol()": "infinite",
            "totalSupply()": "2326",
            "transfer(address,uint256)": "51094",
            "transferFrom(address,address,uint256)": "infinite",
            "transferOwnership(address)": "26834"
        }
    }
}